:020000040800F2
:10000000E0080020290200083714000855130008F2
:10001000351400081F0400088917000800000000BC
:10002000000000000000000000000000D3150008E0
:10003000ED04000800000000D1150008D5150008E7
:10004000430200084302000843020008430200087C
:10005000430200084302000843020008430200086C
:10006000430200084302000843020008430200085C
:100070006504000843020008430200084302000828
:10008000430200084302000843020008430200083C
:10009000430200084302000843020008430200082C
:1000A000430200084302000843020008430200081C
:1000B000430200084302000843020008430200080C
:1000C00043020008430200084302000843020008FC
:1000D00043020008430200084302000843020008EC
:1000E00043020008430200084302000843020008DC
:1000F00043020008430200084302000843020008CC
:1001000043020008430200084302000843020008BB
:1001100043020008430200084302000843020008AB
:10012000430200084302000843020008430200089B
:10013000430200084302000843020008430200088B
:10014000430200084302000843020008430200087B
:10015000430200084302000843020008430200086B
:10016000430200084302000843020008430200085B
:100170004302000843020008430200080000000098
:10018000430200084302000800F002F800F03CF8C7
:100190000AA090E8000C82448344AAF10107DA45E2
:1001A00001D100F031F8AFF2090EBAE80F0013F0F8
:1001B000010F18BFFB1A43F0010318477417000022
:1001C00094170000103A24BF78C878C1FAD85207B3
:1001D00024BF30C830C144BF04680C6070470000C1
:1001E0000023002400250026103A28BF78C1FBD840
:1001F000520728BF30C148BF0B6070471FB501F0E0
:100200007BFB1FBD10B510BD00F0CFF81146FFF706
:10021000F5FF01F05FFB00F0EDF803B4FFF7F2FF2C
:1002200003BC00F0F5F80000094880470948004782
:10023000FEE7FEE7FEE7FEE7FEE7FEE7FEE7FEE796
:10024000FEE7FEE704480549054A064B70470000F3
:100250006D16000889010008E0020020E008002077
:10026000E0040020E004002053EA020C00F0698062
:100270002DE9F04B4FF00006002B1FBFB3FA83F5BA
:1002800003FA05F424FA05F65E4012BF1643B2FAEB
:1002900082F502FA05F4C5F120051EBF22FA05FC1D
:1002A00044EA0C04203556EA044C4FEA144418BFC3
:1002B000641C4FF000084FF00009904271EB030CF2
:1002C00039D3002919BFB1FA81F701FA07F6B0FA5C
:1002D00080F700FA07F6C7F120071EBF20FA07FCD7
:1002E00046EA0C062037B6FBF4FCA7EB0507103FE7
:1002F00007F01F0BCBF120060CFA0BFB2CFA06F6CD
:1003000044BFB3460026202FA4BF5E464FF0000B2B
:100310005BEA060C08BF4FF0010B19EB0B09ABFBB6
:10032000027C48EB0608C01B06FB02CC0BFB03CC8F
:1003300071EB0C01C1E70B46024641464846BDE859
:10034000F08B13B54FF000004FF00001AFF30080C9
:10035000BDE81C4070474FF0000200B513469446BC
:100360009646203922BFA0E80C50A0E80C50B1F10D
:100370002001BFF4F7AF090728BFA0E80C5048BF21
:100380000CC05DF804EB890028BF40F8042B08BFBF
:10039000704748BF20F8022B11F0804F18BF00F8BB
:1003A000012B7047704770477047754600F02CF876
:1003B000AE4605006946534620F00700854618B052
:1003C00020B5FFF73FFFBDE820404FF000064FF09B
:1003D00000074FF000084FF0000B21F00701AC467A
:1003E000ACE8C009ACE8C009ACE8C009ACE8C00999
:1003F0008D46704710B50446AFF300802046BDE837
:100400001040FFF70ABF000000487047800200203C
:1004100001491820ABBEFEE7260002007047FEE748
:1004200030B40D4B4FF400741C6000249C60DC6001
:1004300008241C61094B040A1C705870080A987043
:10044000D970100A18715A7130BC0123034A02494D
:10045000034800F04EB80000F0000020110000201A
:1004600024000020014800F069B90000900000203D
:1004700001681823CAB2103AB2FBF3F2054B6FF3CE
:100480000901032A9B5CC36500D9091D81650846E3
:10049000704700000219000810B5014600208B6962
:1004A0008A6A4FF0C07453B1B3F5005F15D072B1D2
:1004B000012A0CD0022A0AD0032A09D104E01AB179
:1004C000012A06D0022A03D1C96AC90100D5012038
:1004D00010BDC96AA142FAD010BD002AF7D0012A86
:1004E000F2D0022AF3D0032AF3D010BD704772B6BF
:1004F000FEE7F0B590F820500468A468012D05D0FF
:10050000022D03D0416A41F4802153E014F0406F82
:1005100001D1E5004BD5C4F30164022C03D9416A33
:1005200041F4000146E00125A5401D608D684FF4AF
:10053000C0739DB1CE6835434E6845EAC60506686E
:1005400003EB0417F5514FF4C275076805EB04156A
:100550000E697E51097D012905D009E00E88CD681C
:1005600045EA4655EBE701684E5946F480764E5110
:100570001179D2F805504FF4C67641EA0525016895
:1005800006EB04168D511178D2F801204FF4C47592
:1005900041EA0221026805EB04155151006803EBA2
:1005A0000411425842F0010242500020F0BD416A5D
:1005B00041F4001141620120F0BD70B5040003D088
:1005C00094F8200010B104E0012070BD204600F036
:1005D00081F82068016841F00101016000F0E0FA53
:1005E0000546052604E000F0DBFA401B0A2811D876
:1005F00020684068C007F6D02068016821F0020139
:10060000016000F0CDFA05460BE000F0C9FA401B8E
:100610000A2806D9606A40F40030606284F82060DD
:10062000D2E7206840688007EFD4207E0128206848
:1006300001683DD021F080010160607E01282068C2
:10064000016838D021F040010160A07E01282068B7
:10065000016833D021F020010160E07E012820688C
:1006600001682ED041F010010160207F0128206830
:10067000016829D021F008010160607F012820680D
:10068000016824D021F004010160D4E9020108438B
:10069000D4E90412114308436168491E08432168E4
:1006A000C86100206062012084F82000002070BD35
:1006B00041F08001C0E741F04001C5E741F0200171
:1006C000CAE721F01001CFE741F00801D4E741F07B
:1006D0000401D9E710B586B0044614216846FFF737
:1006E0003AFE1349206888421FD11248002102684F
:1006F00042F000720260006800F0007005900D4842
:100700001038026842F0080202600068022200F01D
:10071000080005900320CDE90210CDE90002092070
:1007200004906946044800F043F906B010BD00008B
:100730000064004040380240000C02402DE9F843BC
:1007400004464FF00009CDF8009063484FF416516D
:10075000A56D0068B0FBF1F72E6894F85C100820D6
:1007600000FA01F131420FD021680A6852070BD517
:100770000A6822F004020A6094F85C108840A860BD
:10078000606D40F00100606594F85C104FF0010866
:1007900008FA01F0304208D021684969090604D5F9
:1007A000A860606D40F00200606594F85C10042061
:1007B0008840304208D021680968890704D5A860BC
:1007C000606D40F00400606594F85C101020884073
:1007D000304218D021680968090714D5A86020683C
:1007E0000168490304D50068000308D5A16C07E03F
:1007F0000168C90503D4016821F008010160216C7A
:1008000009B12046884794F85C1020208840304287
:1008100031D021680968C9062DD5A86094F8350043
:1008200005282068016806D0490347D50068000301
:100830001DD4616C1CE021F0160101602068416943
:1008400021F080014161206C08B9A06C20B12068C2
:10085000016821F00801016094F85C103F20884095
:10086000A86084F8358084F83490216D1FE0E16B36
:1008700009B120468847606D00282BD0606DC00705
:1008800014D0052084F835002068016821F00101AA
:1008900001600098401C0090B84203D820680068AE
:1008A000C007F6D184F8358084F83490E16C0029D3
:1008B00010D001B02046BDE8F04308470168C905E3
:1008C000D5D4016821F01001016084F8358084F8E6
:1008D0003490CCE7BDE8F8830C0000202DE9F0410E
:1008E000044600F05DF906465CB1022084F835004C
:1008F000002584F834502068016821F0010101606E
:100900000DE00120BDE8F08100F04AF9801B0528C8
:1009100005D920206065032084F83500F2E72068BF
:100920000068C007F0D12268116820480140D4E96E
:1009300001031843D4E9033633431843636918436A
:10094000A3691843E3691843236A18430843616A9B
:10095000042903D1D4E90B1319430843106020681C
:100960004069666A20F0070130460E4301270428DB
:100970000CD1A06A0643E06A40B12046FFF78CFD27
:1009800020B14020606584F83570BAE72068466180
:100990002046FFF76DFD94F85C203F219140816077
:1009A000656584F835700020ACE700003F8010F0EA
:1009B0002DE9F84FDFF8BCA10022012503264FF0F6
:1009C0000F090AF1040BAAF1040E00BF0B6805FA27
:1009D00002F42340A34270D10F7907F00307012FDF
:1009E00001D0022F16D187684FEA420806FA08FCA8
:1009F00027EA0C07D1F80CC00CFA08FC4CEA070CEB
:100A0000C0F808C04768A7430C79C4F300149440A9
:100A10003C4344600C79E443A4070AD0C4684FEA1D
:100A2000420C06FA0CF7BC438F6807FA0CF7274311
:100A3000C7600C7904F00304022C12D1D40800EB37
:100A4000840CDCF820405707FF0E09FA07F824EA67
:100A50000804D1F8108008FA07F848EA0408CCF82E
:100A6000208004684FEA420C06FA0CF7BC430F7969
:100A700007F0030707FA0CF7274307604C6814F4E4
:100A8000403F70D03C4C276847F48047276024687B
:100A900022F0030704F480440094384C07EB040C64
:100AA000DCF8084897074FEA177809FA08F7BC43BB
:100AB000334FB84202D1002724E054E0314FB8420E
:100AC00001D101271EE0304FB84201D1022719E0C1
:100AD0002E4FB84201D1032714E02D4FB84201D167
:100AE00004270FE02B4FB84201D105270AE02A4F17
:100AF000B84201D1062705E0284FB84201D10727A7
:100B000000E0082707FA08F72743CCF80878DAF856
:100B100000405746D1F804C09C435FEACC2C00D576
:100B20001C433C60DBF800405F46D1F804C09C43A6
:100B30005FEA8C2C00D51C433C60DEF80040774611
:100B4000D1F804C09C435FEA8C3C00D51C433C6058
:100B5000084F083F3C68D1F804C09C435FEACC3C96
:100B600000D51C433C60521C102AFFF42FAFBDE897
:100B7000F88F0000083C014044380240003001403A
:100B8000000002400004024000080240000C024045
:100B9000001002400014024000180240001C0240F5
:100BA000014880687047000000000020024881680A
:100BB0000278114481607047000000200B4810B596
:100BC000016841F400710160016841F480610160D5
:100BD000016841F480710160032000F06FF80F207C
:100BE00000F006F800F024F8002010BD003C0240A0
:100BF00070B50D4D04464FF47A712878B1FBF0F0D2
:100C00000A490968B1FBF0F000F00CFB48B9102C60
:100C100007D200222146501E00F030F800206C6000
:100C200070BD012070BD0000000000200C000020FD
:100C30000A4808B5016841F480410160006800F489
:100C4000804000900548001F016841F0805101601C
:100C5000006800F08050009008BD00004438024059
:100C6000002809DB00F01F020121914040098000AB
:100C700000F1E020C0F8001170470000F0B40E4B06
:100C80001B680C46C3F30223C3F10705042D00D9EA
:100C90000425191D072901D2002300E0DB1E0126CF
:100CA00006FA05F1491E214099409E40761E1640E5
:100CB0003143F0BC00F069BD0CED00E0064900F0E6
:100CC000070208684FF6FF03184040EA0220034A73
:100CD00010430860704700000CED00E00000FA05CA
:100CE0002DE9F0470E46050065D0DFF81481D8F8ED
:100CF0000000F7B200F00700B04207D288F8007099
:100D0000D8F8000000F00700B04254D128683D4CEC
:100D1000810712D5400703D5206840F4E0502060D9
:100D20002878000703D5206840F4604020602068E0
:100D3000A96820F0F000084320602878C0072DD073
:100D4000304968680839012812D0022813D00328D6
:100D500011D00968890700292DDA216821F00301E3
:100D600001432160FFF71CFF814641F2883A0EE003
:100D700009688903EFE709688901ECE7FFF710FFCD
:100D8000A0EB0901514502D90320BDE8F087206896
:100D9000696800F00C00B0EB810FEFD1D8F80010BB
:100DA000404601F00701B14207D90770006800F022
:100DB0000700B04201D00120E7E72878400705D5B9
:100DC0002068E96820F4E050084320602878000794
:100DD00006D52068296920F4604040EAC1002060FF
:100DE00000F038F82168084AC1F30311515CC8408B
:100DF0000649086006480068FFF7FAFE0020C4E7CD
:100E0000003C0240083802400A1900080C0000208B
:100E1000040000200448054900680968044AC1F339
:100E20008221515CC84070470C0000200838024005
:100E30001A1900080448054900680968044AC1F302
:100E40004231515CC84070470C0000200838024015
:100E50001A190008154810B5006810F00C02144863
:100E600013D01449042A0FD0082A0ED10F4C241F86
:100E70002268236802F03F025B0207D52068C0F3B6
:100E80008810A0FB010106E0084610BD2168C1F3EF
:100E90008811A1FB00010023FFF7E6F92168C1F3E7
:100EA0000141491C4900B0FBF1F010BD0838024077
:100EB0000024F40040787D012DE9F84F04006ED045
:100EC0002078DFF84C93C007A9F104054AD009F156
:100ED00004000168C1F38101012908D00068C0F352
:100EE000810002280AD1D9F80000400206D52868FE
:100EF000800337D560680028E1D033E06068B0F542
:100F0000803F10D0B0F5A02F286810D020F480309A
:100F10002860286820F4802028606068A8B1FFF766
:100F20003FFE06460DE0286840F48030F4E740F4C8
:100F300080202860F7E700BFFFF732FE801B64289F
:100F400073D828688003F7D50CE0FFF729FE064622
:100F500005E000BFFFF724FE801B6428F0D8286856
:100F60008003F7D42078DFF8AC8280074FF0000AC6
:100F70003ED5A748001D016811F00C0F08D000688D
:100F8000C0F3810002280BD1D9F80000400207D439
:100F90002868800716D5E068012800D112E033E107
:100FA000E068B8B10120C8F80000FFF7F9FD064677
:100FB00005E000BFFFF7F4FD801B0228C0D82868B9
:100FC0008007F7D52868216920F0F80040EAC100C1
:100FD00028600DE0C8F800A0FFF7E2FD064604E037
:100FE000FFF7DEFD801B02281FD828688007F7D492
:100FF0002078000722D5864F87486169703771B124
:1010000001210160FFF7CCFD064604E0FFF7C8FDB3
:10101000801B022809D838688007F7D50EE0C0F891
:1010200000A0FFF7BDFD064605E082E0FFF7B8FD32
:10103000801B02287DD838688007F7D420784007C5
:1010400068D5DFF8CCB100270BF13C0BDBF80000D2
:10105000C0000BD4DBF8001041F08051CBF8001039
:10106000DBF80000012700F0805000906B4E3068E4
:10107000C00510D4306840F480703060FFF790FDF8
:10108000009005E0FFF78CFD0099401A022850D827
:101090003068C005F6D55E4EA0686C3601280FD0CA
:1010A0000528306810D020F001003060306820F052
:1010B00004003060A068B8B1FFF772FD00900FE047
:1010C000306840F00100F4E740F004003060F7E7DA
:1010D000FFF766FD0099411A41F28830814266D8D7
:1010E00030688007F4D50EE0FFF75AFD009007E066
:1010F000FFF756FD0099411A41F28830814256D8D7
:1011000030688007F4D42FB1DBF8001021F0805153
:10111000CBF80010A069C8B33D49091D0968C1F3A7
:10112000810102294AD00228504607D0C8F8600041
:1011300000E03CE0FFF734FD04463BE04746C8F8DA
:101140006000FFF72DFD064605E000BFFFF728FD14
:10115000801B02282BD828688001F7D4D4E9070126
:101160000843A16A2E4A490802EB0141626A41EA3A
:101170008211084394F82C1040EA0161C9F800106C
:1011800001203866FFF70CFD044606E03EE000BF94
:10119000FFF706FD001B022809D828688001F7D553
:1011A00034E000BFFFF7FCFC001B022802D903203B
:1011B000BDE8F88F28688001F4D427E00128F7D033
:1011C000D9F80000E26900F4800191421CD1226A42
:1011D00000F03F01914217D147F6C071626A0140A9
:1011E000B1EB821F10D1A26A4FF0FF3300F44031FF
:1011F00003EB5202B1EB024F06D194F82C1000F031
:101200007060B0EB016F01D00120D1E70020CFE783
:101210000438024000004742800E47420070004000
:101220000000FFFF10B5401EB0F1807F01D3012008
:1012300010BD4FF0E02460610F21601700F0A5FAA7
:101240000020A06107202061002010BD70B50400BF
:1012500004D094F83D00002510B106E0012070BDD7
:1012600084F83C50204600F023F8242084F83D0008
:101270002068C16821F40051C160204600F0FEF9E9
:101280002068016921F4904101612068416921F0E1
:101290002A0141612068C16841F40051C1602564A0
:1012A000202084F83D0084F83E00002070BD00003E
:1012B00070B586B0064614216846FFF74CF8204901
:1012C0003068884239D11F480025016841F48021E7
:1012D0000160006800F4802005901A481038016809
:1012E00041F0040101600068694600F004000590C7
:1012F0004FF4406000900220CDE9010503200390E7
:10130000072004901048FFF753FB114C0F48206052
:101310004FF00060C4E901054014C4E90350801097
:101320006561C4E90650256220466562FFF7D6FA7A
:1013300008B1FFF7DCF8B463A66306B070BD000027
:101340000048004040380240000802402860024047
:1013500090000020FEE700000F4810B50D49016025
:101360000321416000214FF410228160C0E9031283
:101370004FF400124261017641768176C1760177A1
:101380004177FFF71AF9002803D0BDE81040FFF7B6
:10139000AEB810BD0064004024000020094808B524
:1013A000016841F4001101600068002200F400109F
:1013B000009011460C20FFF761FCBDE808400C20AE
:1013C000FFF74EBC30380240094808B5016841F0CB
:1013D00008010160016801F008010091016841F015
:1013E00004010160006800F00400009008BD0000E6
:1013F000303802400D4810B50B4901600C4941607E
:101400004FF48051816000210C22C160C0E90412B8
:101410008161C161FFF71AFF002803D0BDE81040C9
:10142000FFF765B810BD0000004800404C000020E8
:10143000A0860100FEE7FEE7A0B1D0ED131AC0EDD3
:10144000141A90ED121A80ED131AC0ED090A80EDFE
:101450000A0A30EEC00A80ED120A017829B101298A
:101460003BD078E09FED3D0A7047D0ED010A60EE79
:10147000801AC0ED0C1AD0ED0D0A90ED022A42EE52
:10148000000A30EE410AC0ED0D0A90ED102A80ED01
:10149000112A90ED0F2A80ED102A80ED0F0A90EDB1
:1014A000031A21EE001A80ED0E1A90ED080AF4EEF0
:1014B000C00AF1EE10FA09DCB1EE400AF4EEC00AFF
:1014C000F1EE10FA02D390ED0D0A01E080ED0D0A65
:1014D00031EE800A30EE010A2BE070EE410A90ED09
:1014E000012A20EE822A80ED0C2AD0ED020A60EE5D
:1014F000800AC0ED0D0AD0ED102A72EE200AC0ED70
:10150000112AD0ED0F2AC0ED102AF0EE002A01EECC
:10151000620A30EE210A80ED0F0A90ED031A21EEE7
:10152000000A80ED0E0A30EE800AD0ED0B0A30EE94
:10153000200A80ED0B0AD0ED070AB4EEE00AF1EEC6
:1015400010FA06DCF1EE600AB4EEE00AF1EE10FAF1
:1015500001D2C0ED0B0A90ED0B0A704700000000AD
:10156000002832D0017092ED001A80ED011A92ED40
:10157000011A80ED021A92ED021A80ED031A93ED22
:10158000001A80ED041A93ED011A80ED051A93ED0F
:10159000021A80ED061A80ED070A9FED0C0AC0EDD5
:1015A000080A80ED110A80ED100A80ED0F0A80ED27
:1015B0000B0A80ED0E0A80ED0D0A80ED0C0A80ED1D
:1015C000140A80ED130A80ED120A70470000000033
:1015D00070477047FFF7EABA30B593B030216846DC
:1015E000FEF7B9FE14210CA8FEF7B5FE1D48002534
:1015F000016841F080510160006800F08050119056
:101600001948016841F4804101600068022400F437
:1016100080401190012003901020049000940694C3
:101620000820CDE90750A820CDE9090404200B903B
:101630006846FFF741FC08B172B6FEE70CA90F201F
:1016400081E831004FF4A0500F904FF4805010907B
:1016500005210CA8FFF744FB002801D072B6FEE775
:1016600013B030BD403802400070004002480168AD
:1016700041F470010160704788ED00E070B50446E8
:1016800000680169E26821F4405111430161216958
:10169000A068E26908436169114308432168CA6888
:1016A00049F20C639A430243CA6020684169A26907
:1016B00021F440711143416131492068884202D0D0
:1016C0003049884202D1FFF7B5FB01E0FFF7A2FBEA
:1016D000E2690023192164253226B2F5004F6268C1
:1016E00028D0A0FB0101930F9200FEF7BDFD01463B
:1016F000B0FBF5F06FF01802504301EB800006EBF1
:101700000010B0FBF5F000F0F002B1FBF5F002EBD9
:101710000012B1FBF5F06FF01803584301EB8000A5
:1017200006EB0010B0FBF5F000F00F00216810444C
:10173000886070BDA0FB010192185B41FEF794FD2B
:101740000146B0FBF5F00201B1FBF5F06FF01803B4
:10175000584301EB800006EBC000B0FBF5F000F051
:10176000F80002EB4002B1FBF5F0584301EB8000BA
:1017700006EBC000B0FBF5F000F00700D6E7000074
:101780000010014000140140FEE70907090E00287F
:1017900004DB00F1E02080F80014704700F00F0037
:1017A00000F1E02080F8141D704700002DE9FE4391
:1017B00030B1012807D002284FD19FED290A04E05B
:1017C0009FED280A01E09FED280A284F8DED000AC1
:1017D0008DED010A264E8DED020A0024E84600BF79
:1017E00008EB840004EB840190ED000A07EB410153
:1017F000BDEEC00A10EE100A00B200EE100A88809A
:10180000B1F90200F8EEC00A00EE100AC4EBC40001
:1018100000EB400006EB8005B8EEC00A2846FFF753
:101820000BFE641C85ED0B0A032CD9DB96ED350A03
:10183000BDEEC00A10EE100A96ED200A02B2BDEE0F
:10184000C00A10EE100A96ED0B0A01B2BDEEC00AF6
:1018500010EE100A00B2FEF7E3FDBDE8FE830000C3
:1018600000007A4500A08C4500409C4566010020A0
:1018700084010020F0B500242DED028B87B0114EBD
:10188000114F9FED128ADFED128A254696E8070078
:101890008DE82700C4EBC40000EB4000049507EB83
:1018A0008000F0EE480AB0EE680A03AB6A460021F9
:1018B0000595FFF755FE641C032CE7DB07B0BDEC74
:1018C000028BF0BD2419000884010020000048426A
:1018D0000000C842FFF772F9FFF77EFEFFF774FDC4
:1018E000FFF75CFDFFF738FDFFF784FDFFF7C2FF50
:1018F0000020FFF75BFFF9E74FF04070E1EE100AC0
:1019000070470006101600061016000000000000C8
:10191000000001020304060708090000000001029C
:10192000030400000000803FCDCCCC3D0AD7233C0F
:10193000501900080000002024000000C401000825
:101940007419000824000020BC080000E001000811
:101950000100000010000000000000000024F4005E
:101960000000000000000000000000000000000077
:041970000000000073
:040000050800018965
:00000001FF
